:03000000020651A4
:0C065100787FE4F6D8FD75814802069819
:05000600401907091577
:10082100012D00014000014800013E00C101C1004D
:1008310001380001370005300000000000023500DA
:1008410000043900000000013F00013D0E042100B9
:10085100000000042500000000042900000000023F
:050861002E0000C102A1
:070ACA007E0A00DEFDDFF9EA
:010AD1002202
:100A71007C007D0A12028BEF1F70011E144E70F76D
:010A81002252
:0409C5007FC87E0069
:1009C900AB07AA060BBB00010AEB1B70011A144AFC
:0C09D90060097F847E03120A7180EE2208
:100A4D00AD071FED600BE4FEEEC3940D50F20E806A
:010A5D00F7A1
:010A5E002275
:030A9200120AC184
:080A9500C2A11209C5D2A12281
:0409E5008E098F0ADE
:1009E900900000C3E582950AE5839509500DC2A2DE
:0B09F9001209C5D2A21209C5A380E8B4
:010A040022CF
:090A9D00C293D294D291C29222BC
:090AA600D293C294C291D29222B3
:090AAF00D293C294D291C29222AA
:090AB800C291D292C293D29422A1
:090AC100C293C294C291C29222B8
:100A0500E52DD395405004D2908002C290E52DC3C8
:080A150094144003E4F52D22C6
:100A1D00E548D3953E5004D2958002C295E548C372
:080A2D0094144003E4F5482293
:100A820075400A753E0A120A9D7F647E000209C9FA
:1008670075400C753E0C20B708209705120A9D802D
:100877002320B708309705120AB8800930B70C2033
:100887009709120AAFC2A17F3C800D30B70F30978E
:0E0897000C120AC1D2A17F0A7E001209C922EA
:1006DD0075400F753E0F30A00C309609120A9DD251
:1006ED00A17F0A804730A00F20960C120AAFC2A13D
:1006FD007F647E001209C930960F20A00C120AB833
:10070D00C2A17F647E001209C920962520A022C2B5
:10071D00A1120AC17F327E001209C9D2A1120AA606
:10072D007F967E001209C9120AB87F967E001209C3
:02073D00C922CF
:1008A50075400F753E0FEF14601314601614601C2D
:1008B50014602224047024120A92020A9D120A92DC
:1008C500020AA6120AC1120A95020AAF120AC11239
:0C08D5000A95020AB8120AC1120A952204
:1008E10075400F753E0FC201E530B44F28E531B4B4
:1008F1004E23E53224BE601114601114601124FEF0
:1009010060102405700F020A9D020AA6020AAF02B6
:060911000AB8120AC1221F
:06073F0075400F753E0F2E
:10074500D2B57F02120ACAC2B530B6FDD28E20B626
:10075500FDC28EAF8DEFFEAD8B7C00E42DF536EC42
:100765003EF535E4F58DF58BAC35AD361201D17B13
:100775009A7A9979D9783F120026E4FBFA79C878F4
:100785004212012F12020A8F3C8E3B8D3A8C392280
:1009170012073FE47F0AFEFDFCAB3CAA3BA93AA8BD
:1009270039D31202EE5016120AC1120A95120AA6FC
:100937001209C5120AB87FC87E000209C9120A9DAA
:01094700228D
:1005B40012073FE47F05FEFDFCAB3CAA3BA93AA829
:1005C40039C31202EE5003020AA6E47F0AFEFDFCC0
:1005D400AB3CAA3BA93AA839D31202EE50067F01DC
:1005E400C00780047F00C007E47F05FEFDFCAB3C30
:1005F400AA3BA93AA839C31202EE40047E01800244
:100604007E00D0E05E60028040E47F0AFEFDFCAB29
:100614003CAA3BA93AA839D31202EE40067F01C096
:100624000780047F00C007E47F28FEFDFCAB3CAAE2
:100634003BA93AA839C31202EE50047E0180027E1F
:0D06440000D0E05E6003020A9D120AC12290
:10041D00753D06E4F52EF52FD3E52F94A0E52E942A
:10042D000F40F5120745853C28853B27853A2685E3
:10043D003925753D14E4F52EF52FD3E52F94A0E560
:10044D002E940F40F5120745853C2C853B2B853AA4
:10045D002A853929753D0EE4F52EF52FD3E52F9418
:10046D00A0E52E940F40F5120745853C24853B23CE
:10047D00853A22853921E47F0FFEFDFCAB28AA27A2
:10048D00A926A825C31202EE4013E47F0FFEFDFC42
:10049D00AB2CAA2BA92AA8291202EE5013120AA6D8
:1004AD00E4F52EF52FD3E52F94E8E52E940340F5D2
:1004BD00AF2CAE2BAD2AAC29AB28AA27A926A8258F
:1004CD00D31202EE4015120AB8E4F52EF52FD3E53E
:1004DD002F94DCE52E9405501580F3120AAFE4F548
:0F04ED002EF52FD3E52F94DCE52E940540F52254
:10094800C3E52F94C8E52E94004025E4F52EF52F35
:10095800120745E47F0FFEFDFCAB3CAA3BA93AA871
:1009680039C31202EE5006120AC102041D120A9D72
:01097800225C
:100A5F00758921758CFC758A18D28CD2A9D2AFC238
:020A6F00022261
:070AD200D2A8D288D2AF22A6
:100A3500758921758DFD758BFD759850E4F587D207
:080A45008ED2ACD2AFC2AB228D
:0D000E00758911E4F58DF58BD2AFD2AB22D0
:10097900758911758CFF758A9CD28CD2A9D2AFC2A8
:10098900A8C2ACD202D290D2957F327E001209C998
:0A099900753D0E7FF47E010209C9CE
:1009A300D202758911758CFF758A9CD28CD2A9D21B
:1009B300AF7F327E001209C9753D0E7FF47E0102BE
:0209C30009C960
:030003000204FCF8
:0D04FC00C0E0C0F0C083C082C0D075D00049
:10050900E4FCC2A87F0F120A4D30B205D2A8020539
:10051900A920B2077F01120A4D80F6750B00750CF0
:100529000030B2077F01120A4D80F620B2077F0121
:10053900120A4D80F630B2107F01120A4D0CECC33D
:10054900941E40F1D2A880587441250BF8C000E6EA
:10055900FFC313D000F6ECC3940840097441250B7E
:10056900F8E64480F67C00050CE50CC3940840B11C
:10057900050BE50BC3940440A5E544F46543600409
:10058900D2A8801C750B00E50B90000693B54305B6
:10059900AF0B1208A5050BE50BC3940A40E9D2A8D5
:0B05A900D0D0D082D083D0F0D0E03260
:03000B0002079554
:10079500C0E0C0D0200210758CFC758A18052D05A7
:1007A50048120A05120A1D300227758CFF758A9CAE
:1007B500052FE52F7002052E053FE53FD3953D50EA
:1007C50004D2B48002C2B4E53FC394644003753FCC
:0607D50000D0D0D0E0329C
:03001B0002001EC2
:01001E0032AF
:030023000207DBF6
:1007DB00C0E0C0D075D000C000309833C298859966
:1007EB0037E537B44F0FE538700B74302538F8A662
:1007FB0037D200801A300017053874302538F8A628
:10080B0037E538C394024007753800C200D201D0D7
:06081B0000D0D0D0E03255
:1002FF007508011209A3120A5F120A957F017E0089
:10030F001209E530B3030203C27F0A7E001209C946
:10031F0020B30F120AC1120A95C28CC28E05083083
:10032F00B3FDE508D394084003750801E508B4014F
:10033F000A120A5F7F017E001209E5E508B4020A7E
:10034F00120A5F7F027E001209E5E508B4030A1264
:10035F000A5F7F037E001209E5E508B4040D120A57
:10036F005F120AD27F047E001209E5E508B4050D7D
:10037F00120A5F120A357F057E001209E5E508B4FF
:10038F00060D120A5F12000E7F067E001209E5E5C8
:10039F0008B4070D120A5F12000E7F077E001209C4
:1003AF00E5E508B4080D7F087E001209E512000E7E
:1003BF00120979E50814B4080040030203129003F0
:1003CF00DB75F003A4C58325F0C583730203F30225
:1003DF0003F90203FF02031202040502040B0204D5
:1003EF0011020417120A8202031212086702031283
:1003FF001206DD0203121208E1020312120917029C
:0E040F0003121205B40203121209480203126E
:10002600EC4D6011E8497017ED33EC3304600DE4D4
:10003600FCFFFEFD22E933E8330470F80202761273
:10004600024158046009E4CC248150062850090274
:10005600028028400302027DC0E0EB4A7044B9806A
:1000660006D0E0FB02026CEF4E701CBD8008EBFF71
:10007600EAFEE9FD80EBE98DF0A4FEE5F002010F52
:10008600E9CDF9EAFEEBFFEF89F0A4FCE5F0CE89B5
:10009600F0A42EFFE435F0CD89F0A42DFEE435F072
:1000A6008067EF4E7005BD80D780C3EF8BF0A4ACA0
:1000B600F0EE8BF0A42CFCE435F0F8EF8AF0A42CDB
:1000C600E5F038FCE433CB8DF0A42CFCE5F03BF8EE
:1000D600EE8AF0A42CFCE5F038F8E433CF89F0A4DE
:1000E6002CFCE5F038CF3400CE89F0A42FFFE5F0E4
:1000F6003EFEE433C98DF0A42EFEE5F039CD8AF03C
:10010600A42FFFE5F03EFEE43DFD33D0E0FB5007B3
:100116000BBB000F020280EC2CFCEF33FFEE33FE2C
:06012600ED33FD0202585A
:10012C00020280EC5D046005E8590470030202765B
:10013C00120241580460F6EC4860F2EC7004FDFECB
:10014C00FF22C860DB2481C85009C39860025006A6
:10015C0002027D9850CAF582E9294B4A7005AB82A0
:10016C0002026C75F0007C1A7880C3EF9BEE9AED5E
:10017C0099400DC3EF9BFFEE9AFEED99FDE842F01E
:10018C00DC23ACF0D0E0FFD0E0FED0E0FDAB822071
:10019C00E7101BEB60BAEC2CFCEF33FFEE33FEEDFB
:1001AC0033FD020258E803F830E705C0F075F000A3
:1001BC00EF2FFFEE33FEED33FD40B830E7C280AADF
:1001CC0075F020800E75F010800575F0087D007EAE
:1001DC00007F003392D530D5031202E0EC3340108F
:1001EC00EF33FFEE33FEED33FDEC33FCD5F0ED22B7
:0E01FC00E5F0247EA2D513CC92E7CDCEFF22F3
:10020A00EDD2E7CD33EC3392D524814006E4FFFEEC
:10021A00FDFC22FCE4CFCECDCC24E0501174FF804B
:10022A00EDC3CC13CCCD13CDCE13CECF13CF0470E8
:07023A00F030D5DE0202E006
:10024100E9D2E7C933E833F892D5EDD2E7CD33EC03
:0702510033FC5002B2D5227C
:10025800EC30E7100FBF000C0EBE00080DBD000407
:100268000BEB6014A2D5EB13FCED92E7FD2274FFB3
:10027800FCFDFEFF22E480F8A2D574FF13FC7D800C
:03028800E480EF20
:10065D000202FFE493A3F8E493A34003F68001F2B2
:10066D0008DFF48029E493A3F85407240CC8C3339E
:10067D00C4540F4420C8834004F456800146F6DF6D
:10068D00E4800B0102040810204080900821E47ED4
:10069D00019360BCA3FF543F30E509541FFEE49362
:1006AD00A360010ECF54C025E060A840B8E493A329
:1006BD00FAE493A3F8E493A3C8C582C8CAC583CA54
:1006CD00F0A3C8C582C8CAC583CADFE9DEE780BE0C
:010866000091
:10028B00BC000BBE0029EF8DF084FFADF022E4CC57
:10029B00F875F008EF2FFFEE33FEEC33FCEE9DEC20
:1002AB00984005FCEE9DFE0FD5F0E9E4CEFD22ED66
:1002BB00F8F5F0EE8420D21CFEADF075F008EF2FB0
:1002CB00FFED33FD4007985006D5F0F222C398FDA1
:0502DB000FD5F0EA223E
:0E02E000C3E49FFFE49EFEE49DFDE49CFC222F
:1002EE00EB9FF5F0EA9E42F0E99D42F0E89C45F066
:0102FE0022DD
:00000001FF
